{
    "contractName": "MyToken",
    "abi": [
        {
            "inputs": [],
            "stateMutability": "nonpayable",
            "type": "constructor"
        },
        {
            "anonymous": false,
            "inputs": [
                {
                    "indexed": true,
                    "internalType": "address",
                    "name": "owner",
                    "type": "address"
                },
                {
                    "indexed": true,
                    "internalType": "address",
                    "name": "approved",
                    "type": "address"
                },
                {
                    "indexed": true,
                    "internalType": "uint256",
                    "name": "tokenId",
                    "type": "uint256"
                }
            ],
            "name": "Approval",
            "type": "event"
        },
        {
            "anonymous": false,
            "inputs": [
                {
                    "indexed": true,
                    "internalType": "address",
                    "name": "owner",
                    "type": "address"
                },
                {
                    "indexed": true,
                    "internalType": "address",
                    "name": "operator",
                    "type": "address"
                },
                {
                    "indexed": false,
                    "internalType": "bool",
                    "name": "approved",
                    "type": "bool"
                }
            ],
            "name": "ApprovalForAll",
            "type": "event"
        },
        {
            "anonymous": false,
            "inputs": [
                {
                    "indexed": true,
                    "internalType": "bytes32",
                    "name": "role",
                    "type": "bytes32"
                },
                {
                    "indexed": true,
                    "internalType": "bytes32",
                    "name": "previousAdminRole",
                    "type": "bytes32"
                },
                {
                    "indexed": true,
                    "internalType": "bytes32",
                    "name": "newAdminRole",
                    "type": "bytes32"
                }
            ],
            "name": "RoleAdminChanged",
            "type": "event"
        },
        {
            "anonymous": false,
            "inputs": [
                {
                    "indexed": true,
                    "internalType": "bytes32",
                    "name": "role",
                    "type": "bytes32"
                },
                {
                    "indexed": true,
                    "internalType": "address",
                    "name": "account",
                    "type": "address"
                },
                {
                    "indexed": true,
                    "internalType": "address",
                    "name": "sender",
                    "type": "address"
                }
            ],
            "name": "RoleGranted",
            "type": "event"
        },
        {
            "anonymous": false,
            "inputs": [
                {
                    "indexed": true,
                    "internalType": "bytes32",
                    "name": "role",
                    "type": "bytes32"
                },
                {
                    "indexed": true,
                    "internalType": "address",
                    "name": "account",
                    "type": "address"
                },
                {
                    "indexed": true,
                    "internalType": "address",
                    "name": "sender",
                    "type": "address"
                }
            ],
            "name": "RoleRevoked",
            "type": "event"
        },
        {
            "anonymous": false,
            "inputs": [
                {
                    "indexed": true,
                    "internalType": "address",
                    "name": "from",
                    "type": "address"
                },
                {
                    "indexed": true,
                    "internalType": "address",
                    "name": "to",
                    "type": "address"
                },
                {
                    "indexed": true,
                    "internalType": "uint256",
                    "name": "tokenId",
                    "type": "uint256"
                }
            ],
            "name": "Transfer",
            "type": "event"
        },
        {
            "inputs": [],
            "name": "DEFAULT_ADMIN_ROLE",
            "outputs": [
                {
                    "internalType": "bytes32",
                    "name": "",
                    "type": "bytes32"
                }
            ],
            "stateMutability": "view",
            "type": "function"
        },
        {
            "inputs": [],
            "name": "MINTER_ROLE",
            "outputs": [
                {
                    "internalType": "bytes32",
                    "name": "",
                    "type": "bytes32"
                }
            ],
            "stateMutability": "view",
            "type": "function"
        },
        {
            "inputs": [
                {
                    "internalType": "address",
                    "name": "to",
                    "type": "address"
                },
                {
                    "internalType": "uint256",
                    "name": "tokenId",
                    "type": "uint256"
                }
            ],
            "name": "approve",
            "outputs": [],
            "stateMutability": "nonpayable",
            "type": "function"
        },
        {
            "inputs": [
                {
                    "internalType": "address",
                    "name": "owner",
                    "type": "address"
                }
            ],
            "name": "balanceOf",
            "outputs": [
                {
                    "internalType": "uint256",
                    "name": "",
                    "type": "uint256"
                }
            ],
            "stateMutability": "view",
            "type": "function"
        },
        {
            "inputs": [],
            "name": "balanceReceived",
            "outputs": [
                {
                    "internalType": "uint256",
                    "name": "",
                    "type": "uint256"
                }
            ],
            "stateMutability": "view",
            "type": "function"
        },
        {
            "inputs": [
                {
                    "internalType": "uint256",
                    "name": "tokenId",
                    "type": "uint256"
                }
            ],
            "name": "getApproved",
            "outputs": [
                {
                    "internalType": "address",
                    "name": "",
                    "type": "address"
                }
            ],
            "stateMutability": "view",
            "type": "function"
        },
        {
            "inputs": [],
            "name": "getBalance",
            "outputs": [
                {
                    "internalType": "uint256",
                    "name": "",
                    "type": "uint256"
                }
            ],
            "stateMutability": "view",
            "type": "function"
        },
        {
            "inputs": [
                {
                    "internalType": "bytes32",
                    "name": "role",
                    "type": "bytes32"
                }
            ],
            "name": "getRoleAdmin",
            "outputs": [
                {
                    "internalType": "bytes32",
                    "name": "",
                    "type": "bytes32"
                }
            ],
            "stateMutability": "view",
            "type": "function"
        },
        {
            "inputs": [
                {
                    "internalType": "bytes32",
                    "name": "role",
                    "type": "bytes32"
                },
                {
                    "internalType": "address",
                    "name": "account",
                    "type": "address"
                }
            ],
            "name": "grantRole",
            "outputs": [],
            "stateMutability": "nonpayable",
            "type": "function"
        },
        {
            "inputs": [
                {
                    "internalType": "bytes32",
                    "name": "role",
                    "type": "bytes32"
                },
                {
                    "internalType": "address",
                    "name": "account",
                    "type": "address"
                }
            ],
            "name": "hasRole",
            "outputs": [
                {
                    "internalType": "bool",
                    "name": "",
                    "type": "bool"
                }
            ],
            "stateMutability": "view",
            "type": "function"
        },
        {
            "inputs": [
                {
                    "internalType": "address",
                    "name": "owner",
                    "type": "address"
                },
                {
                    "internalType": "address",
                    "name": "operator",
                    "type": "address"
                }
            ],
            "name": "isApprovedForAll",
            "outputs": [
                {
                    "internalType": "bool",
                    "name": "",
                    "type": "bool"
                }
            ],
            "stateMutability": "view",
            "type": "function"
        },
        {
            "inputs": [],
            "name": "name",
            "outputs": [
                {
                    "internalType": "string",
                    "name": "",
                    "type": "string"
                }
            ],
            "stateMutability": "view",
            "type": "function"
        },
        {
            "inputs": [
                {
                    "internalType": "uint256",
                    "name": "tokenId",
                    "type": "uint256"
                }
            ],
            "name": "ownerOf",
            "outputs": [
                {
                    "internalType": "address",
                    "name": "",
                    "type": "address"
                }
            ],
            "stateMutability": "view",
            "type": "function"
        },
        {
            "inputs": [],
            "name": "receiveMoney",
            "outputs": [],
            "stateMutability": "payable",
            "type": "function"
        },
        {
            "inputs": [
                {
                    "internalType": "bytes32",
                    "name": "role",
                    "type": "bytes32"
                },
                {
                    "internalType": "address",
                    "name": "account",
                    "type": "address"
                }
            ],
            "name": "renounceRole",
            "outputs": [],
            "stateMutability": "nonpayable",
            "type": "function"
        },
        {
            "inputs": [
                {
                    "internalType": "bytes32",
                    "name": "role",
                    "type": "bytes32"
                },
                {
                    "internalType": "address",
                    "name": "account",
                    "type": "address"
                }
            ],
            "name": "revokeRole",
            "outputs": [],
            "stateMutability": "nonpayable",
            "type": "function"
        },
        {
            "inputs": [
                {
                    "internalType": "address",
                    "name": "to",
                    "type": "address"
                },
                {
                    "internalType": "string",
                    "name": "_tokenURI",
                    "type": "string"
                }
            ],
            "name": "safeMint",
            "outputs": [],
            "stateMutability": "nonpayable",
            "type": "function"
        },
        {
            "inputs": [
                {
                    "internalType": "address",
                    "name": "from",
                    "type": "address"
                },
                {
                    "internalType": "address",
                    "name": "to",
                    "type": "address"
                },
                {
                    "internalType": "uint256",
                    "name": "tokenId",
                    "type": "uint256"
                }
            ],
            "name": "safeTransferFrom",
            "outputs": [],
            "stateMutability": "nonpayable",
            "type": "function"
        },
        {
            "inputs": [
                {
                    "internalType": "address",
                    "name": "from",
                    "type": "address"
                },
                {
                    "internalType": "address",
                    "name": "to",
                    "type": "address"
                },
                {
                    "internalType": "uint256",
                    "name": "tokenId",
                    "type": "uint256"
                },
                {
                    "internalType": "bytes",
                    "name": "_data",
                    "type": "bytes"
                }
            ],
            "name": "safeTransferFrom",
            "outputs": [],
            "stateMutability": "nonpayable",
            "type": "function"
        },
        {
            "inputs": [
                {
                    "internalType": "address",
                    "name": "operator",
                    "type": "address"
                },
                {
                    "internalType": "bool",
                    "name": "approved",
                    "type": "bool"
                }
            ],
            "name": "setApprovalForAll",
            "outputs": [],
            "stateMutability": "nonpayable",
            "type": "function"
        },
        {
            "inputs": [
                {
                    "internalType": "bytes4",
                    "name": "interfaceId",
                    "type": "bytes4"
                }
            ],
            "name": "supportsInterface",
            "outputs": [
                {
                    "internalType": "bool",
                    "name": "",
                    "type": "bool"
                }
            ],
            "stateMutability": "view",
            "type": "function"
        },
        {
            "inputs": [],
            "name": "symbol",
            "outputs": [
                {
                    "internalType": "string",
                    "name": "",
                    "type": "string"
                }
            ],
            "stateMutability": "view",
            "type": "function"
        },
        {
            "inputs": [
                {
                    "internalType": "uint256",
                    "name": "tokenId",
                    "type": "uint256"
                }
            ],
            "name": "tokenURI",
            "outputs": [
                {
                    "internalType": "string",
                    "name": "",
                    "type": "string"
                }
            ],
            "stateMutability": "view",
            "type": "function"
        },
        {
            "inputs": [
                {
                    "internalType": "address",
                    "name": "from",
                    "type": "address"
                },
                {
                    "internalType": "address",
                    "name": "to",
                    "type": "address"
                },
                {
                    "internalType": "uint256",
                    "name": "tokenId",
                    "type": "uint256"
                }
            ],
            "name": "transferFrom",
            "outputs": [],
            "stateMutability": "nonpayable",
            "type": "function"
        },
        {
            "inputs": [],
            "name": "withdrawMoney",
            "outputs": [],
            "stateMutability": "nonpayable",
            "type": "function"
        },
        {
            "inputs": [
                {
                    "internalType": "address",
                    "name": "_payableTo",
                    "type": "address"
                }
            ],
            "name": "withdrawMoneyTo",
            "outputs": [],
            "stateMutability": "nonpayable",
            "type": "function"
        },
        {
            "stateMutability": "payable",
            "type": "receive"
        }
    ],
    "bytecode": "60806040523480156200001157600080fd5b50604080518082018252600781526626bcaa37b5b2b760c91b6020808301918252835180850190945260038452624d544b60e81b9084015281519192916200005c9160009162000181565b5080516200007290600190602084019062000181565b506200008491506000905033620000b6565b620000b07f9f2df0fed2c77648de5860a4cc508cd0818c85b8b8a1ab4ceeef8d981c8956a633620000b6565b62000264565b620000c28282620000c6565b5050565b620000d2828262000152565b620000c25760008281526007602090815260408083206001600160a01b03851684529091529020805460ff191660011790556200010e6200017d565b6001600160a01b0316816001600160a01b0316837f2f8788117e7eff1d82e926ec794901d17c78024a50270940304540a733656f0d60405160405180910390a45050565b60009182526007602090815260408084206001600160a01b0393909316845291905290205460ff1690565b3390565b8280546200018f9062000227565b90600052602060002090601f016020900481019282620001b35760008555620001fe565b82601f10620001ce57805160ff1916838001178555620001fe565b82800160010185558215620001fe579182015b82811115620001fe578251825591602001919060010190620001e1565b506200020c92915062000210565b5090565b5b808211156200020c576000815560010162000211565b6002810460018216806200023c57607f821691505b602082108114156200025e57634e487b7160e01b600052602260045260246000fd5b50919050565b6120dc80620002746000396000f3fe6080604052600436106101855760003560e01c80636d26ec18116100d1578063ac4460021161008a578063d204c45e11610064578063d204c45e14610436578063d539139314610456578063d547741f1461046b578063e985e9c51461048b5761018c565b8063ac446002146103e1578063b88d4fde146103f6578063c87b56dd146104165761018c565b80636d26ec181461034f57806370a082311461035757806391d148541461037757806395d89b4114610397578063a217fddf146103ac578063a22cb465146103c15761018c565b806323b872dd1161013e57806336568abe1161011857806336568abe146102da57806342842e0e146102fa57806352a90c421461031a5780636352211e1461032f5761018c565b806323b872dd1461027a578063248a9ca31461029a5780632f2ff15d146102ba5761018c565b806301ffc9a71461019157806306fdde03146101c7578063081812fc146101e9578063095ea7b3146102165780630ff8d8a51461023857806312065fe0146102585761018c565b3661018c57005b600080fd5b34801561019d57600080fd5b506101b16101ac3660046118ae565b6104ab565b6040516101be9190611a07565b60405180910390f35b3480156101d357600080fd5b506101dc6104be565b6040516101be9190611a1b565b3480156101f557600080fd5b50610209610204366004611874565b610550565b6040516101be91906119b6565b34801561022257600080fd5b5061023661023136600461184b565b61059c565b005b34801561024457600080fd5b506102366102533660046116b2565b610634565b34801561026457600080fd5b5061026d610675565b6040516101be9190611a12565b34801561028657600080fd5b506102366102953660046116fe565b610679565b3480156102a657600080fd5b5061026d6102b5366004611874565b6106b1565b3480156102c657600080fd5b506102366102d536600461188c565b6106c6565b3480156102e657600080fd5b506102366102f536600461188c565b6106ea565b34801561030657600080fd5b506102366103153660046116fe565b61072c565b34801561032657600080fd5b5061026d610747565b34801561033b57600080fd5b5061020961034a366004611874565b61074d565b610236610782565b34801561036357600080fd5b5061026d6103723660046116b2565b61079b565b34801561038357600080fd5b506101b161039236600461188c565b6107df565b3480156103a357600080fd5b506101dc61080a565b3480156103b857600080fd5b5061026d610819565b3480156103cd57600080fd5b506102366103dc3660046117b2565b61081e565b3480156103ed57600080fd5b506102366108ec565b34801561040257600080fd5b50610236610411366004611739565b6108f9565b34801561042257600080fd5b506101dc610431366004611874565b610938565b34801561044257600080fd5b506102366104513660046117ec565b610943565b34801561046257600080fd5b5061026d6109a0565b34801561047757600080fd5b5061023661048636600461188c565b6109c4565b34801561049757600080fd5b506101b16104a63660046116cc565b6109e3565b60006104b682610a11565b90505b919050565b6060600080546104cd90611fe1565b80601f01602080910402602001604051908101604052809291908181526020018280546104f990611fe1565b80156105465780601f1061051b57610100808354040283529160200191610546565b820191906000526020600020905b81548152906001019060200180831161052957829003601f168201915b5050505050905090565b600061055b82610a36565b6105805760405162461bcd60e51b815260040161057790611d77565b60405180910390fd5b506000908152600460205260409020546001600160a01b031690565b60006105a78261074d565b9050806001600160a01b0316836001600160a01b031614156105db5760405162461bcd60e51b815260040161057790611e5b565b806001600160a01b03166105ed610a53565b6001600160a01b031614806106095750610609816104a6610a53565b6106255760405162461bcd60e51b815260040161057790611bb3565b61062f8383610a57565b505050565b806001600160a01b03166108fc610649610675565b6040518115909202916000818181858888f19350505050158015610671573d6000803e3d6000fd5b5050565b4790565b61068a610684610a53565b82610ac5565b6106a65760405162461bcd60e51b815260040161057790611e9c565b61062f838383610b4a565b60009081526007602052604090206001015490565b6106cf826106b1565b6106e0816106db610a53565b610c77565b61062f8383610cdb565b6106f2610a53565b6001600160a01b0316816001600160a01b0316146107225760405162461bcd60e51b815260040161057790611eed565b6106718282610d62565b61062f838383604051806020016040528060008152506108f9565b60085481565b6000818152600260205260408120546001600160a01b0316806104b65760405162461bcd60e51b815260040161057790611c5a565b34600860008282546107949190611f3c565b9091555050565b60006001600160a01b0382166107c35760405162461bcd60e51b815260040161057790611c10565b506001600160a01b031660009081526003602052604090205490565b60009182526007602090815260408084206001600160a01b0393909316845291905290205460ff1690565b6060600180546104cd90611fe1565b600081565b610826610a53565b6001600160a01b0316826001600160a01b031614156108575760405162461bcd60e51b815260040161057790611b30565b8060056000610864610a53565b6001600160a01b03908116825260208083019390935260409182016000908120918716808252919093529120805460ff1916921515929092179091556108a8610a53565b6001600160a01b03167f17307eab39ab6107e8899845ad3d59bd9653f200f220920489ca2b5937696c31836040516108e09190611a07565b60405180910390a35050565b33806108fc610649610675565b61090a610904610a53565b83610ac5565b6109265760405162461bcd60e51b815260040161057790611e9c565b61093284848484610de7565b50505050565b60606104b682610e1a565b7f9f2df0fed2c77648de5860a4cc508cd0818c85b8b8a1ab4ceeef8d981c8956a6610970816106db610a53565b6109838361097e600a610f33565b610f37565b610996610990600a610f33565b83610f51565b61062f600a610f95565b7f9f2df0fed2c77648de5860a4cc508cd0818c85b8b8a1ab4ceeef8d981c8956a681565b6109cd826106b1565b6109d9816106db610a53565b61062f8383610d62565b6001600160a01b03918216600090815260056020908152604080832093909416825291909152205460ff1690565b60006001600160e01b03198216637965db0b60e01b14806104b657506104b682610f9e565b6000908152600260205260409020546001600160a01b0316151590565b3390565b600081815260046020526040902080546001600160a01b0319166001600160a01b0384169081179091558190610a8c8261074d565b6001600160a01b03167f8c5be1e5ebec7d5bd14f71427d1e84f3dd0314c0f7b2291e5b200ac8c7c3b92560405160405180910390a45050565b6000610ad082610a36565b610aec5760405162461bcd60e51b815260040161057790611b67565b6000610af78361074d565b9050806001600160a01b0316846001600160a01b03161480610b325750836001600160a01b0316610b2784610550565b6001600160a01b0316145b80610b425750610b4281856109e3565b949350505050565b826001600160a01b0316610b5d8261074d565b6001600160a01b031614610b835760405162461bcd60e51b815260040161057790611dc3565b6001600160a01b038216610ba95760405162461bcd60e51b815260040161057790611aec565b610bb483838361062f565b610bbf600082610a57565b6001600160a01b0383166000908152600360205260408120805460019290610be8908490611f87565b90915550506001600160a01b0382166000908152600360205260408120805460019290610c16908490611f3c565b909155505060008181526002602052604080822080546001600160a01b0319166001600160a01b0386811691821790925591518493918716917fddf252ad1be2c89b69c2b068fc378daa952ba7f163c4a11628f55a4df523b3ef91a4505050565b610c8182826107df565b61067157610c99816001600160a01b03166014610fde565b610ca4836020610fde565b604051602001610cb5929190611941565b60408051601f198184030181529082905262461bcd60e51b825261057791600401611a1b565b610ce582826107df565b6106715760008281526007602090815260408083206001600160a01b03851684529091529020805460ff19166001179055610d1e610a53565b6001600160a01b0316816001600160a01b0316837f2f8788117e7eff1d82e926ec794901d17c78024a50270940304540a733656f0d60405160405180910390a45050565b610d6c82826107df565b156106715760008281526007602090815260408083206001600160a01b03851684529091529020805460ff19169055610da3610a53565b6001600160a01b0316816001600160a01b0316837ff6391f5c32d9c69d2a47ea670b442974b53935d1edc7fd64eb21e047a839171b60405160405180910390a45050565b610df2848484610b4a565b610dfe84848484611197565b6109325760405162461bcd60e51b815260040161057790611a63565b6060610e2582610a36565b610e415760405162461bcd60e51b815260040161057790611d26565b60008281526006602052604081208054610e5a90611fe1565b80601f0160208091040260200160405190810160405280929190818152602001828054610e8690611fe1565b8015610ed35780601f10610ea857610100808354040283529160200191610ed3565b820191906000526020600020905b815481529060010190602001808311610eb657829003601f168201915b505050505090506000610ee46112b2565b9050805160001415610ef8575090506104b9565b815115610f2a578082604051602001610f12929190611912565b604051602081830303815290604052925050506104b9565b610b42846112c4565b5490565b610671828260405180602001604052806000815250611346565b610f5a82610a36565b610f765760405162461bcd60e51b815260040161057790611ca3565b6000828152600660209081526040909120825161062f92840190611592565b80546001019055565b60006001600160e01b031982166380ac58cd60e01b1480610fcf57506001600160e01b03198216635b5e139f60e01b145b806104b657506104b682611379565b60606000610fed836002611f68565b610ff8906002611f3c565b67ffffffffffffffff81111561101e57634e487b7160e01b600052604160045260246000fd5b6040519080825280601f01601f191660200182016040528015611048576020820181803683370190505b509050600360fc1b8160008151811061107157634e487b7160e01b600052603260045260246000fd5b60200101906001600160f81b031916908160001a905350600f60fb1b816001815181106110ae57634e487b7160e01b600052603260045260246000fd5b60200101906001600160f81b031916908160001a90535060006110d2846002611f68565b6110dd906001611f3c565b90505b6001811115611171576f181899199a1a9b1b9c1cb0b131b232b360811b85600f166010811061111f57634e487b7160e01b600052603260045260246000fd5b1a60f81b82828151811061114357634e487b7160e01b600052603260045260246000fd5b60200101906001600160f81b031916908160001a90535060049490941c9361116a81611fca565b90506110e0565b5083156111905760405162461bcd60e51b815260040161057790611a2e565b9392505050565b60006111ab846001600160a01b0316611392565b156112a757836001600160a01b031663150b7a026111c7610a53565b8786866040518563ffffffff1660e01b81526004016111e994939291906119ca565b602060405180830381600087803b15801561120357600080fd5b505af1925050508015611233575060408051601f3d908101601f19168201909252611230918101906118ca565b60015b61128d573d808015611261576040519150601f19603f3d011682016040523d82523d6000602084013e611266565b606091505b5080516112855760405162461bcd60e51b815260040161057790611a63565b805181602001fd5b6001600160e01b031916630a85bd0160e11b149050610b42565b506001949350505050565b60408051602081019091526000815290565b60606112cf82610a36565b6112eb5760405162461bcd60e51b815260040161057790611e0c565b60006112f56112b2565b905060008151116113155760405180602001604052806000815250611190565b8061131f84611398565b604051602001611330929190611912565b6040516020818303038152906040529392505050565b61135083836114b3565b61135d6000848484611197565b61062f5760405162461bcd60e51b815260040161057790611a63565b6001600160e01b031981166301ffc9a760e01b14919050565b3b151590565b6060816113bd57506040805180820190915260018152600360fc1b60208201526104b9565b8160005b81156113e757806113d18161201c565b91506113e09050600a83611f54565b91506113c1565b60008167ffffffffffffffff81111561141057634e487b7160e01b600052604160045260246000fd5b6040519080825280601f01601f19166020018201604052801561143a576020820181803683370190505b5090505b8415610b425761144f600183611f87565b915061145c600a86612037565b611467906030611f3c565b60f81b81838151811061148a57634e487b7160e01b600052603260045260246000fd5b60200101906001600160f81b031916908160001a9053506114ac600a86611f54565b945061143e565b6001600160a01b0382166114d95760405162461bcd60e51b815260040161057790611cf1565b6114e281610a36565b156114ff5760405162461bcd60e51b815260040161057790611ab5565b61150b6000838361062f565b6001600160a01b0382166000908152600360205260408120805460019290611534908490611f3c565b909155505060008181526002602052604080822080546001600160a01b0319166001600160a01b03861690811790915590518392907fddf252ad1be2c89b69c2b068fc378daa952ba7f163c4a11628f55a4df523b3ef908290a45050565b82805461159e90611fe1565b90600052602060002090601f0160209004810192826115c05760008555611606565b82601f106115d957805160ff1916838001178555611606565b82800160010185558215611606579182015b828111156116065782518255916020019190600101906115eb565b50611612929150611616565b5090565b5b808211156116125760008155600101611617565b600067ffffffffffffffff8084111561164657611646612077565b604051601f8501601f19168101602001828111828210171561166a5761166a612077565b60405284815291508183850186101561168257600080fd5b8484602083013760006020868301015250509392505050565b80356001600160a01b03811681146104b957600080fd5b6000602082840312156116c3578081fd5b6111908261169b565b600080604083850312156116de578081fd5b6116e78361169b565b91506116f56020840161169b565b90509250929050565b600080600060608486031215611712578081fd5b61171b8461169b565b92506117296020850161169b565b9150604084013590509250925092565b6000806000806080858703121561174e578081fd5b6117578561169b565b93506117656020860161169b565b925060408501359150606085013567ffffffffffffffff811115611787578182fd5b8501601f81018713611797578182fd5b6117a68782356020840161162b565b91505092959194509250565b600080604083850312156117c4578182fd5b6117cd8361169b565b9150602083013580151581146117e1578182fd5b809150509250929050565b600080604083850312156117fe578182fd5b6118078361169b565b9150602083013567ffffffffffffffff811115611822578182fd5b8301601f81018513611832578182fd5b6118418582356020840161162b565b9150509250929050565b6000806040838503121561185d578182fd5b6118668361169b565b946020939093013593505050565b600060208284031215611885578081fd5b5035919050565b6000806040838503121561189e578182fd5b823591506116f56020840161169b565b6000602082840312156118bf578081fd5b81356111908161208d565b6000602082840312156118db578081fd5b81516111908161208d565b600081518084526118fe816020860160208601611f9e565b601f01601f19169290920160200192915050565b60008351611924818460208801611f9e565b835190830190611938818360208801611f9e565b01949350505050565b60007f416363657373436f6e74726f6c3a206163636f756e742000000000000000000082528351611979816017850160208801611f9e565b7001034b99036b4b9b9b4b733903937b6329607d1b60179184019182015283516119aa816028840160208801611f9e565b01602801949350505050565b6001600160a01b0391909116815260200190565b6001600160a01b03858116825284166020820152604081018390526080606082018190526000906119fd908301846118e6565b9695505050505050565b901515815260200190565b90815260200190565b60006020825261119060208301846118e6565b6020808252818101527f537472696e67733a20686578206c656e67746820696e73756666696369656e74604082015260600190565b60208082526032908201527f4552433732313a207472616e7366657220746f206e6f6e20455243373231526560408201527131b2b4bb32b91034b6b83632b6b2b73a32b960711b606082015260800190565b6020808252601c908201527f4552433732313a20746f6b656e20616c7265616479206d696e74656400000000604082015260600190565b60208082526024908201527f4552433732313a207472616e7366657220746f20746865207a65726f206164646040820152637265737360e01b606082015260800190565b60208082526019908201527f4552433732313a20617070726f766520746f2063616c6c657200000000000000604082015260600190565b6020808252602c908201527f4552433732313a206f70657261746f7220717565727920666f72206e6f6e657860408201526b34b9ba32b73a103a37b5b2b760a11b606082015260800190565b60208082526038908201527f4552433732313a20617070726f76652063616c6c6572206973206e6f74206f7760408201527f6e6572206e6f7220617070726f76656420666f7220616c6c0000000000000000606082015260800190565b6020808252602a908201527f4552433732313a2062616c616e636520717565727920666f7220746865207a65604082015269726f206164647265737360b01b606082015260800190565b60208082526029908201527f4552433732313a206f776e657220717565727920666f72206e6f6e657869737460408201526832b73a103a37b5b2b760b91b606082015260800190565b6020808252602e908201527f45524337323155524953746f726167653a2055524920736574206f66206e6f6e60408201526d32bc34b9ba32b73a103a37b5b2b760911b606082015260800190565b6020808252818101527f4552433732313a206d696e7420746f20746865207a65726f2061646472657373604082015260600190565b60208082526031908201527f45524337323155524953746f726167653a2055524920717565727920666f72206040820152703737b732bc34b9ba32b73a103a37b5b2b760791b606082015260800190565b6020808252602c908201527f4552433732313a20617070726f76656420717565727920666f72206e6f6e657860408201526b34b9ba32b73a103a37b5b2b760a11b606082015260800190565b60208082526029908201527f4552433732313a207472616e73666572206f6620746f6b656e2074686174206960408201526839903737ba1037bbb760b91b606082015260800190565b6020808252602f908201527f4552433732314d657461646174613a2055524920717565727920666f72206e6f60408201526e3732bc34b9ba32b73a103a37b5b2b760891b606082015260800190565b60208082526021908201527f4552433732313a20617070726f76616c20746f2063757272656e74206f776e656040820152603960f91b606082015260800190565b60208082526031908201527f4552433732313a207472616e736665722063616c6c6572206973206e6f74206f6040820152701ddb995c881b9bdc88185c1c1c9bdd9959607a1b606082015260800190565b6020808252602f908201527f416363657373436f6e74726f6c3a2063616e206f6e6c792072656e6f756e636560408201526e103937b632b9903337b91039b2b63360891b606082015260800190565b60008219821115611f4f57611f4f61204b565b500190565b600082611f6357611f63612061565b500490565b6000816000190483118215151615611f8257611f8261204b565b500290565b600082821015611f9957611f9961204b565b500390565b60005b83811015611fb9578181015183820152602001611fa1565b838111156109325750506000910152565b600081611fd957611fd961204b565b506000190190565b600281046001821680611ff557607f821691505b6020821081141561201657634e487b7160e01b600052602260045260246000fd5b50919050565b60006000198214156120305761203061204b565b5060010190565b60008261204657612046612061565b500690565b634e487b7160e01b600052601160045260246000fd5b634e487b7160e01b600052601260045260246000fd5b634e487b7160e01b600052604160045260246000fd5b6001600160e01b0319811681146120a357600080fd5b5056fea26469706673582212200913f90ede653d0049da911ed530f4fa41ab7bd88102953722c54cb8576c38e764736f6c63430008000033",
    "sourcePath": "d:/wamp64/www/FTDev/Express/IPFS/MintingMS/contracts/MyToken.sol",
    "compiler": {
        "name": "solc",
        "version": "0.8.0+commit.c7dfd78e"
    },
    "functionHashes": {
        "DEFAULT_ADMIN_ROLE()": "a217fddf",
        "MINTER_ROLE()": "d5391393",
        "approve(address,uint256)": "095ea7b3",
        "balanceOf(address)": "70a08231",
        "balanceReceived()": "52a90c42",
        "getApproved(uint256)": "081812fc",
        "getBalance()": "12065fe0",
        "getRoleAdmin(bytes32)": "248a9ca3",
        "grantRole(bytes32,address)": "2f2ff15d",
        "hasRole(bytes32,address)": "91d14854",
        "isApprovedForAll(address,address)": "e985e9c5",
        "name()": "06fdde03",
        "ownerOf(uint256)": "6352211e",
        "receiveMoney()": "6d26ec18",
        "renounceRole(bytes32,address)": "36568abe",
        "revokeRole(bytes32,address)": "d547741f",
        "safeMint(address,string)": "d204c45e",
        "safeTransferFrom(address,address,uint256)": "42842e0e",
        "safeTransferFrom(address,address,uint256,bytes)": "b88d4fde",
        "setApprovalForAll(address,bool)": "a22cb465",
        "supportsInterface(bytes4)": "01ffc9a7",
        "symbol()": "95d89b41",
        "tokenURI(uint256)": "c87b56dd",
        "transferFrom(address,address,uint256)": "23b872dd",
        "withdrawMoney()": "ac446002",
        "withdrawMoneyTo(address)": "0ff8d8a5"
    },
    "gasEstimates": {
        "creation": {
            "codeDepositCost": "1682400",
            "executionCost": "infinite",
            "totalCost": "infinite"
        },
        "external": {
            "DEFAULT_ADMIN_ROLE()": "339",
            "MINTER_ROLE()": "294",
            "approve(address,uint256)": "infinite",
            "balanceOf(address)": "1355",
            "balanceReceived()": "1117",
            "getApproved(uint256)": "2223",
            "getBalance()": "364",
            "getRoleAdmin(bytes32)": "1245",
            "grantRole(bytes32,address)": "infinite",
            "hasRole(bytes32,address)": "1453",
            "isApprovedForAll(address,address)": "infinite",
            "name()": "infinite",
            "ownerOf(uint256)": "1388",
            "receiveMoney()": "21037",
            "renounceRole(bytes32,address)": "infinite",
            "revokeRole(bytes32,address)": "infinite",
            "safeMint(address,string)": "infinite",
            "safeTransferFrom(address,address,uint256)": "infinite",
            "safeTransferFrom(address,address,uint256,bytes)": "infinite",
            "setApprovalForAll(address,bool)": "infinite",
            "supportsInterface(bytes4)": "infinite",
            "symbol()": "infinite",
            "tokenURI(uint256)": "infinite",
            "transferFrom(address,address,uint256)": "infinite",
            "withdrawMoney()": "infinite",
            "withdrawMoneyTo(address)": "infinite"
        },
        "internal": {
            "_burn(uint256)": "infinite"
        }
    }
}