{
  "contractName": "MyToken",
  "abi": [
    {
      "inputs": [],
      "stateMutability": "nonpayable",
      "type": "constructor"
    },
    {
      "anonymous": false,
      "inputs": [
        {
          "indexed": true,
          "internalType": "address",
          "name": "owner",
          "type": "address"
        },
        {
          "indexed": true,
          "internalType": "address",
          "name": "approved",
          "type": "address"
        },
        {
          "indexed": true,
          "internalType": "uint256",
          "name": "tokenId",
          "type": "uint256"
        }
      ],
      "name": "Approval",
      "type": "event"
    },
    {
      "anonymous": false,
      "inputs": [
        {
          "indexed": true,
          "internalType": "address",
          "name": "owner",
          "type": "address"
        },
        {
          "indexed": true,
          "internalType": "address",
          "name": "operator",
          "type": "address"
        },
        {
          "indexed": false,
          "internalType": "bool",
          "name": "approved",
          "type": "bool"
        }
      ],
      "name": "ApprovalForAll",
      "type": "event"
    },
    {
      "anonymous": false,
      "inputs": [
        {
          "indexed": true,
          "internalType": "bytes32",
          "name": "role",
          "type": "bytes32"
        },
        {
          "indexed": true,
          "internalType": "bytes32",
          "name": "previousAdminRole",
          "type": "bytes32"
        },
        {
          "indexed": true,
          "internalType": "bytes32",
          "name": "newAdminRole",
          "type": "bytes32"
        }
      ],
      "name": "RoleAdminChanged",
      "type": "event"
    },
    {
      "anonymous": false,
      "inputs": [
        {
          "indexed": true,
          "internalType": "bytes32",
          "name": "role",
          "type": "bytes32"
        },
        {
          "indexed": true,
          "internalType": "address",
          "name": "account",
          "type": "address"
        },
        {
          "indexed": true,
          "internalType": "address",
          "name": "sender",
          "type": "address"
        }
      ],
      "name": "RoleGranted",
      "type": "event"
    },
    {
      "anonymous": false,
      "inputs": [
        {
          "indexed": true,
          "internalType": "bytes32",
          "name": "role",
          "type": "bytes32"
        },
        {
          "indexed": true,
          "internalType": "address",
          "name": "account",
          "type": "address"
        },
        {
          "indexed": true,
          "internalType": "address",
          "name": "sender",
          "type": "address"
        }
      ],
      "name": "RoleRevoked",
      "type": "event"
    },
    {
      "anonymous": false,
      "inputs": [
        {
          "indexed": true,
          "internalType": "address",
          "name": "from",
          "type": "address"
        },
        {
          "indexed": true,
          "internalType": "address",
          "name": "to",
          "type": "address"
        },
        {
          "indexed": true,
          "internalType": "uint256",
          "name": "tokenId",
          "type": "uint256"
        }
      ],
      "name": "Transfer",
      "type": "event"
    },
    {
      "inputs": [],
      "name": "DEFAULT_ADMIN_ROLE",
      "outputs": [
        {
          "internalType": "bytes32",
          "name": "",
          "type": "bytes32"
        }
      ],
      "stateMutability": "view",
      "type": "function",
      "constant": true
    },
    {
      "inputs": [],
      "name": "MINTER_ROLE",
      "outputs": [
        {
          "internalType": "bytes32",
          "name": "",
          "type": "bytes32"
        }
      ],
      "stateMutability": "view",
      "type": "function",
      "constant": true
    },
    {
      "inputs": [
        {
          "internalType": "address",
          "name": "to",
          "type": "address"
        },
        {
          "internalType": "uint256",
          "name": "tokenId",
          "type": "uint256"
        }
      ],
      "name": "approve",
      "outputs": [],
      "stateMutability": "nonpayable",
      "type": "function"
    },
    {
      "inputs": [
        {
          "internalType": "address",
          "name": "owner",
          "type": "address"
        }
      ],
      "name": "balanceOf",
      "outputs": [
        {
          "internalType": "uint256",
          "name": "",
          "type": "uint256"
        }
      ],
      "stateMutability": "view",
      "type": "function",
      "constant": true
    },
    {
      "inputs": [],
      "name": "balanceReceived",
      "outputs": [
        {
          "internalType": "uint256",
          "name": "",
          "type": "uint256"
        }
      ],
      "stateMutability": "view",
      "type": "function",
      "constant": true
    },
    {
      "inputs": [
        {
          "internalType": "uint256",
          "name": "tokenId",
          "type": "uint256"
        }
      ],
      "name": "getApproved",
      "outputs": [
        {
          "internalType": "address",
          "name": "",
          "type": "address"
        }
      ],
      "stateMutability": "view",
      "type": "function",
      "constant": true
    },
    {
      "inputs": [
        {
          "internalType": "bytes32",
          "name": "role",
          "type": "bytes32"
        }
      ],
      "name": "getRoleAdmin",
      "outputs": [
        {
          "internalType": "bytes32",
          "name": "",
          "type": "bytes32"
        }
      ],
      "stateMutability": "view",
      "type": "function",
      "constant": true
    },
    {
      "inputs": [
        {
          "internalType": "bytes32",
          "name": "role",
          "type": "bytes32"
        },
        {
          "internalType": "address",
          "name": "account",
          "type": "address"
        }
      ],
      "name": "grantRole",
      "outputs": [],
      "stateMutability": "nonpayable",
      "type": "function"
    },
    {
      "inputs": [
        {
          "internalType": "bytes32",
          "name": "role",
          "type": "bytes32"
        },
        {
          "internalType": "address",
          "name": "account",
          "type": "address"
        }
      ],
      "name": "hasRole",
      "outputs": [
        {
          "internalType": "bool",
          "name": "",
          "type": "bool"
        }
      ],
      "stateMutability": "view",
      "type": "function",
      "constant": true
    },
    {
      "inputs": [
        {
          "internalType": "address",
          "name": "owner",
          "type": "address"
        },
        {
          "internalType": "address",
          "name": "operator",
          "type": "address"
        }
      ],
      "name": "isApprovedForAll",
      "outputs": [
        {
          "internalType": "bool",
          "name": "",
          "type": "bool"
        }
      ],
      "stateMutability": "view",
      "type": "function",
      "constant": true
    },
    {
      "inputs": [],
      "name": "name",
      "outputs": [
        {
          "internalType": "string",
          "name": "",
          "type": "string"
        }
      ],
      "stateMutability": "view",
      "type": "function",
      "constant": true
    },
    {
      "inputs": [
        {
          "internalType": "uint256",
          "name": "tokenId",
          "type": "uint256"
        }
      ],
      "name": "ownerOf",
      "outputs": [
        {
          "internalType": "address",
          "name": "",
          "type": "address"
        }
      ],
      "stateMutability": "view",
      "type": "function",
      "constant": true
    },
    {
      "inputs": [
        {
          "internalType": "bytes32",
          "name": "role",
          "type": "bytes32"
        },
        {
          "internalType": "address",
          "name": "account",
          "type": "address"
        }
      ],
      "name": "renounceRole",
      "outputs": [],
      "stateMutability": "nonpayable",
      "type": "function"
    },
    {
      "inputs": [
        {
          "internalType": "bytes32",
          "name": "role",
          "type": "bytes32"
        },
        {
          "internalType": "address",
          "name": "account",
          "type": "address"
        }
      ],
      "name": "revokeRole",
      "outputs": [],
      "stateMutability": "nonpayable",
      "type": "function"
    },
    {
      "inputs": [
        {
          "internalType": "address",
          "name": "from",
          "type": "address"
        },
        {
          "internalType": "address",
          "name": "to",
          "type": "address"
        },
        {
          "internalType": "uint256",
          "name": "tokenId",
          "type": "uint256"
        }
      ],
      "name": "safeTransferFrom",
      "outputs": [],
      "stateMutability": "nonpayable",
      "type": "function"
    },
    {
      "inputs": [
        {
          "internalType": "address",
          "name": "from",
          "type": "address"
        },
        {
          "internalType": "address",
          "name": "to",
          "type": "address"
        },
        {
          "internalType": "uint256",
          "name": "tokenId",
          "type": "uint256"
        },
        {
          "internalType": "bytes",
          "name": "_data",
          "type": "bytes"
        }
      ],
      "name": "safeTransferFrom",
      "outputs": [],
      "stateMutability": "nonpayable",
      "type": "function"
    },
    {
      "inputs": [
        {
          "internalType": "address",
          "name": "operator",
          "type": "address"
        },
        {
          "internalType": "bool",
          "name": "approved",
          "type": "bool"
        }
      ],
      "name": "setApprovalForAll",
      "outputs": [],
      "stateMutability": "nonpayable",
      "type": "function"
    },
    {
      "inputs": [],
      "name": "symbol",
      "outputs": [
        {
          "internalType": "string",
          "name": "",
          "type": "string"
        }
      ],
      "stateMutability": "view",
      "type": "function",
      "constant": true
    },
    {
      "inputs": [
        {
          "internalType": "address",
          "name": "from",
          "type": "address"
        },
        {
          "internalType": "address",
          "name": "to",
          "type": "address"
        },
        {
          "internalType": "uint256",
          "name": "tokenId",
          "type": "uint256"
        }
      ],
      "name": "transferFrom",
      "outputs": [],
      "stateMutability": "nonpayable",
      "type": "function"
    },
    {
      "stateMutability": "payable",
      "type": "receive",
      "payable": true
    },
    {
      "inputs": [],
      "name": "receiveMoney",
      "outputs": [],
      "stateMutability": "payable",
      "type": "function",
      "payable": true
    },
    {
      "inputs": [],
      "name": "getBalance",
      "outputs": [
        {
          "internalType": "uint256",
          "name": "",
          "type": "uint256"
        }
      ],
      "stateMutability": "view",
      "type": "function",
      "constant": true
    },
    {
      "inputs": [],
      "name": "withdrawMoney",
      "outputs": [],
      "stateMutability": "nonpayable",
      "type": "function"
    },
    {
      "inputs": [
        {
          "internalType": "address",
          "name": "_payableTo",
          "type": "address"
        }
      ],
      "name": "withdrawMoneyTo",
      "outputs": [],
      "stateMutability": "nonpayable",
      "type": "function"
    },
    {
      "inputs": [
        {
          "internalType": "address",
          "name": "to",
          "type": "address"
        },
        {
          "internalType": "string",
          "name": "_tokenURI",
          "type": "string"
        }
      ],
      "name": "safeMint",
      "outputs": [],
      "stateMutability": "nonpayable",
      "type": "function"
    },
    {
      "inputs": [
        {
          "internalType": "uint256",
          "name": "tokenId",
          "type": "uint256"
        }
      ],
      "name": "tokenURI",
      "outputs": [
        {
          "internalType": "string",
          "name": "",
          "type": "string"
        }
      ],
      "stateMutability": "view",
      "type": "function",
      "constant": true
    },
    {
      "inputs": [
        {
          "internalType": "bytes4",
          "name": "interfaceId",
          "type": "bytes4"
        }
      ],
      "name": "supportsInterface",
      "outputs": [
        {
          "internalType": "bool",
          "name": "",
          "type": "bool"
        }
      ],
      "stateMutability": "view",
      "type": "function",
      "constant": true
    }
  ],
  "bytecode": "0x60806040523480156200001157600080fd5b506040518060400160405280600781526020017f4d79546f6b656e000000000000000000000000000000000000000000000000008152506040518060400160405280600381526020017f4d544b00000000000000000000000000000000000000000000000000000000008152508160009080519060200190620000969291906200027a565b508060019080519060200190620000af9291906200027a565b505050620000c76000801b33620000ff60201b60201c565b620000f97f9f2df0fed2c77648de5860a4cc508cd0818c85b8b8a1ab4ceeef8d981c8956a633620000ff60201b60201c565b6200038f565b6200011182826200011560201b60201c565b5050565b6200012782826200020760201b60201c565b620002035760016007600084815260200190815260200160002060000160008373ffffffffffffffffffffffffffffffffffffffff1673ffffffffffffffffffffffffffffffffffffffff16815260200190815260200160002060006101000a81548160ff021916908315150217905550620001a86200027260201b60201c565b73ffffffffffffffffffffffffffffffffffffffff168173ffffffffffffffffffffffffffffffffffffffff16837f2f8788117e7eff1d82e926ec794901d17c78024a50270940304540a733656f0d60405160405180910390a45b5050565b60006007600084815260200190815260200160002060000160008373ffffffffffffffffffffffffffffffffffffffff1673ffffffffffffffffffffffffffffffffffffffff16815260200190815260200160002060009054906101000a900460ff16905092915050565b600033905090565b82805462000288906200032a565b90600052602060002090601f016020900481019282620002ac5760008555620002f8565b82601f10620002c757805160ff1916838001178555620002f8565b82800160010185558215620002f8579182015b82811115620002f7578251825591602001919060010190620002da565b5b5090506200030791906200030b565b5090565b5b80821115620003265760008160009055506001016200030c565b5090565b600060028204905060018216806200034357607f821691505b602082108114156200035a576200035962000360565b5b50919050565b7f4e487b7100000000000000000000000000000000000000000000000000000000600052602260045260246000fd5b613a30806200039f6000396000f3fe6080604052600436106101855760003560e01c80636d26ec18116100d1578063ac4460021161008a578063d204c45e11610064578063d204c45e1461057c578063d5391393146105a5578063d547741f146105d0578063e985e9c5146105f95761018c565b8063ac446002146104ff578063b88d4fde14610516578063c87b56dd1461053f5761018c565b80636d26ec18146103fc57806370a082311461040657806391d148541461044357806395d89b4114610480578063a217fddf146104ab578063a22cb465146104d65761018c565b806323b872dd1161013e57806336568abe1161011857806336568abe1461034257806342842e0e1461036b57806352a90c42146103945780636352211e146103bf5761018c565b806323b872dd146102b3578063248a9ca3146102dc5780632f2ff15d146103195761018c565b806301ffc9a71461019157806306fdde03146101ce578063081812fc146101f9578063095ea7b3146102365780630ff8d8a51461025f57806312065fe0146102885761018c565b3661018c57005b600080fd5b34801561019d57600080fd5b506101b860048036038101906101b391906127ef565b610636565b6040516101c59190612cd6565b60405180910390f35b3480156101da57600080fd5b506101e3610648565b6040516101f09190612d0c565b60405180910390f35b34801561020557600080fd5b50610220600480360381019061021b9190612849565b6106da565b60405161022d9190612c6f565b60405180910390f35b34801561024257600080fd5b5061025d60048036038101906102589190612742565b61075f565b005b34801561026b57600080fd5b5061028660048036038101906102819190612563565b610877565b005b34801561029457600080fd5b5061029d6108c8565b6040516102aa9190612f6e565b60405180910390f35b3480156102bf57600080fd5b506102da60048036038101906102d591906125d0565b6108d0565b005b3480156102e857600080fd5b5061030360048036038101906102fe9190612782565b610930565b6040516103109190612cf1565b60405180910390f35b34801561032557600080fd5b50610340600480360381019061033b91906127af565b610950565b005b34801561034e57600080fd5b50610369600480360381019061036491906127af565b610979565b005b34801561037757600080fd5b50610392600480360381019061038d91906125d0565b6109fc565b005b3480156103a057600080fd5b506103a9610a1c565b6040516103b69190612f6e565b60405180910390f35b3480156103cb57600080fd5b506103e660048036038101906103e19190612849565b610a22565b6040516103f39190612c6f565b60405180910390f35b610404610ad4565b005b34801561041257600080fd5b5061042d60048036038101906104289190612563565b610aef565b60405161043a9190612f6e565b60405180910390f35b34801561044f57600080fd5b5061046a600480360381019061046591906127af565b610ba7565b6040516104779190612cd6565b60405180910390f35b34801561048c57600080fd5b50610495610c12565b6040516104a29190612d0c565b60405180910390f35b3480156104b757600080fd5b506104c0610ca4565b6040516104cd9190612cf1565b60405180910390f35b3480156104e257600080fd5b506104fd60048036038101906104f891906126a6565b610cab565b005b34801561050b57600080fd5b50610514610e2c565b005b34801561052257600080fd5b5061053d60048036038101906105389190612623565b610e82565b005b34801561054b57600080fd5b5061056660048036038101906105619190612849565b610ee4565b6040516105739190612d0c565b60405180910390f35b34801561058857600080fd5b506105a3600480360381019061059e91906126e6565b610ef6565b005b3480156105b157600080fd5b506105ba610f5d565b6040516105c79190612cf1565b60405180910390f35b3480156105dc57600080fd5b506105f760048036038101906105f291906127af565b610f81565b005b34801561060557600080fd5b50610620600480360381019061061b9190612590565b610faa565b60405161062d9190612cd6565b60405180910390f35b60006106418261103e565b9050919050565b60606000805461065790613252565b80601f016020809104026020016040519081016040528092919081815260200182805461068390613252565b80156106d05780601f106106a5576101008083540402835291602001916106d0565b820191906000526020600020905b8154815290600101906020018083116106b357829003601f168201915b5050505050905090565b60006106e5826110b8565b610724576040517f08c379a000000000000000000000000000000000000000000000000000000000815260040161071b90612eae565b60405180910390fd5b6004600083815260200190815260200160002060009054906101000a900473ffffffffffffffffffffffffffffffffffffffff169050919050565b600061076a82610a22565b90508073ffffffffffffffffffffffffffffffffffffffff168373ffffffffffffffffffffffffffffffffffffffff1614156107db576040517f08c379a00000000000000000000000000000000000000000000000000000000081526004016107d290612f0e565b60405180910390fd5b8073ffffffffffffffffffffffffffffffffffffffff166107fa611124565b73ffffffffffffffffffffffffffffffffffffffff161480610829575061082881610823611124565b610faa565b5b610868576040517f08c379a000000000000000000000000000000000000000000000000000000000815260040161085f90612dee565b60405180910390fd5b610872838361112c565b505050565b8073ffffffffffffffffffffffffffffffffffffffff166108fc6108996108c8565b9081150290604051600060405180830381858888f193505050501580156108c4573d6000803e3d6000fd5b5050565b600047905090565b6108e16108db611124565b826111e5565b610920576040517f08c379a000000000000000000000000000000000000000000000000000000000815260040161091790612f2e565b60405180910390fd5b61092b8383836112c3565b505050565b600060076000838152602001908152602001600020600101549050919050565b61095982610930565b61096a81610965611124565b61151f565b61097483836115bc565b505050565b610981611124565b73ffffffffffffffffffffffffffffffffffffffff168173ffffffffffffffffffffffffffffffffffffffff16146109ee576040517f08c379a00000000000000000000000000000000000000000000000000000000081526004016109e590612f4e565b60405180910390fd5b6109f8828261169d565b5050565b610a1783838360405180602001604052806000815250610e82565b505050565b60085481565b6000806002600084815260200190815260200160002060009054906101000a900473ffffffffffffffffffffffffffffffffffffffff169050600073ffffffffffffffffffffffffffffffffffffffff168173ffffffffffffffffffffffffffffffffffffffff161415610acb576040517f08c379a0000000000000000000000000000000000000000000000000000000008152600401610ac290612e2e565b60405180910390fd5b80915050919050565b3460086000828254610ae69190613053565b92505081905550565b60008073ffffffffffffffffffffffffffffffffffffffff168273ffffffffffffffffffffffffffffffffffffffff161415610b60576040517f08c379a0000000000000000000000000000000000000000000000000000000008152600401610b5790612e0e565b60405180910390fd5b600360008373ffffffffffffffffffffffffffffffffffffffff1673ffffffffffffffffffffffffffffffffffffffff168152602001908152602001600020549050919050565b60006007600084815260200190815260200160002060000160008373ffffffffffffffffffffffffffffffffffffffff1673ffffffffffffffffffffffffffffffffffffffff16815260200190815260200160002060009054906101000a900460ff16905092915050565b606060018054610c2190613252565b80601f0160208091040260200160405190810160405280929190818152602001828054610c4d90613252565b8015610c9a5780601f10610c6f57610100808354040283529160200191610c9a565b820191906000526020600020905b815481529060010190602001808311610c7d57829003601f168201915b5050505050905090565b6000801b81565b610cb3611124565b73ffffffffffffffffffffffffffffffffffffffff168273ffffffffffffffffffffffffffffffffffffffff161415610d21576040517f08c379a0000000000000000000000000000000000000000000000000000000008152600401610d1890612dae565b60405180910390fd5b8060056000610d2e611124565b73ffffffffffffffffffffffffffffffffffffffff1673ffffffffffffffffffffffffffffffffffffffff16815260200190815260200160002060008473ffffffffffffffffffffffffffffffffffffffff1673ffffffffffffffffffffffffffffffffffffffff16815260200190815260200160002060006101000a81548160ff0219169083151502179055508173ffffffffffffffffffffffffffffffffffffffff16610ddb611124565b73ffffffffffffffffffffffffffffffffffffffff167f17307eab39ab6107e8899845ad3d59bd9653f200f220920489ca2b5937696c3183604051610e209190612cd6565b60405180910390a35050565b60003390508073ffffffffffffffffffffffffffffffffffffffff166108fc610e536108c8565b9081150290604051600060405180830381858888f19350505050158015610e7e573d6000803e3d6000fd5b5050565b610e93610e8d611124565b836111e5565b610ed2576040517f08c379a0000000000000000000000000000000000000000000000000000000008152600401610ec990612f2e565b60405180910390fd5b610ede8484848461177f565b50505050565b6060610eef826117db565b9050919050565b7f9f2df0fed2c77648de5860a4cc508cd0818c85b8b8a1ab4ceeef8d981c8956a6610f2881610f23611124565b61151f565b610f3b83610f36600a61192d565b61193b565b610f4e610f48600a61192d565b83611959565b610f58600a6119cd565b505050565b7f9f2df0fed2c77648de5860a4cc508cd0818c85b8b8a1ab4ceeef8d981c8956a681565b610f8a82610930565b610f9b81610f96611124565b61151f565b610fa5838361169d565b505050565b6000600560008473ffffffffffffffffffffffffffffffffffffffff1673ffffffffffffffffffffffffffffffffffffffff16815260200190815260200160002060008373ffffffffffffffffffffffffffffffffffffffff1673ffffffffffffffffffffffffffffffffffffffff16815260200190815260200160002060009054906101000a900460ff16905092915050565b60007f7965db0b000000000000000000000000000000000000000000000000000000007bffffffffffffffffffffffffffffffffffffffffffffffffffffffff1916827bffffffffffffffffffffffffffffffffffffffffffffffffffffffff191614806110b157506110b0826119e3565b5b9050919050565b60008073ffffffffffffffffffffffffffffffffffffffff166002600084815260200190815260200160002060009054906101000a900473ffffffffffffffffffffffffffffffffffffffff1673ffffffffffffffffffffffffffffffffffffffff1614159050919050565b600033905090565b816004600083815260200190815260200160002060006101000a81548173ffffffffffffffffffffffffffffffffffffffff021916908373ffffffffffffffffffffffffffffffffffffffff160217905550808273ffffffffffffffffffffffffffffffffffffffff1661119f83610a22565b73ffffffffffffffffffffffffffffffffffffffff167f8c5be1e5ebec7d5bd14f71427d1e84f3dd0314c0f7b2291e5b200ac8c7c3b92560405160405180910390a45050565b60006111f0826110b8565b61122f576040517f08c379a000000000000000000000000000000000000000000000000000000000815260040161122690612dce565b60405180910390fd5b600061123a83610a22565b90508073ffffffffffffffffffffffffffffffffffffffff168473ffffffffffffffffffffffffffffffffffffffff1614806112a957508373ffffffffffffffffffffffffffffffffffffffff16611291846106da565b73ffffffffffffffffffffffffffffffffffffffff16145b806112ba57506112b98185610faa565b5b91505092915050565b8273ffffffffffffffffffffffffffffffffffffffff166112e382610a22565b73ffffffffffffffffffffffffffffffffffffffff1614611339576040517f08c379a000000000000000000000000000000000000000000000000000000000815260040161133090612ece565b60405180910390fd5b600073ffffffffffffffffffffffffffffffffffffffff168273ffffffffffffffffffffffffffffffffffffffff1614156113a9576040517f08c379a00000000000000000000000000000000000000000000000000000000081526004016113a090612d8e565b60405180910390fd5b6113b4838383611ac5565b6113bf60008261112c565b6001600360008573ffffffffffffffffffffffffffffffffffffffff1673ffffffffffffffffffffffffffffffffffffffff168152602001908152602001600020600082825461140f9190613134565b925050819055506001600360008473ffffffffffffffffffffffffffffffffffffffff1673ffffffffffffffffffffffffffffffffffffffff16815260200190815260200160002060008282546114669190613053565b92505081905550816002600083815260200190815260200160002060006101000a81548173ffffffffffffffffffffffffffffffffffffffff021916908373ffffffffffffffffffffffffffffffffffffffff160217905550808273ffffffffffffffffffffffffffffffffffffffff168473ffffffffffffffffffffffffffffffffffffffff167fddf252ad1be2c89b69c2b068fc378daa952ba7f163c4a11628f55a4df523b3ef60405160405180910390a4505050565b6115298282610ba7565b6115b85761154e8173ffffffffffffffffffffffffffffffffffffffff166014611aca565b61155c8360001c6020611aca565b60405160200161156d929190612c35565b6040516020818303038152906040526040517f08c379a00000000000000000000000000000000000000000000000000000000081526004016115af9190612d0c565b60405180910390fd5b5050565b6115c68282610ba7565b6116995760016007600084815260200190815260200160002060000160008373ffffffffffffffffffffffffffffffffffffffff1673ffffffffffffffffffffffffffffffffffffffff16815260200190815260200160002060006101000a81548160ff02191690831515021790555061163e611124565b73ffffffffffffffffffffffffffffffffffffffff168173ffffffffffffffffffffffffffffffffffffffff16837f2f8788117e7eff1d82e926ec794901d17c78024a50270940304540a733656f0d60405160405180910390a45b5050565b6116a78282610ba7565b1561177b5760006007600084815260200190815260200160002060000160008373ffffffffffffffffffffffffffffffffffffffff1673ffffffffffffffffffffffffffffffffffffffff16815260200190815260200160002060006101000a81548160ff021916908315150217905550611720611124565b73ffffffffffffffffffffffffffffffffffffffff168173ffffffffffffffffffffffffffffffffffffffff16837ff6391f5c32d9c69d2a47ea670b442974b53935d1edc7fd64eb21e047a839171b60405160405180910390a45b5050565b61178a8484846112c3565b61179684848484611d06565b6117d5576040517f08c379a00000000000000000000000000000000000000000000000000000000081526004016117cc90612d4e565b60405180910390fd5b50505050565b60606117e6826110b8565b611825576040517f08c379a000000000000000000000000000000000000000000000000000000000815260040161181c90612e8e565b60405180910390fd5b600060066000848152602001908152602001600020805461184590613252565b80601f016020809104026020016040519081016040528092919081815260200182805461187190613252565b80156118be5780601f10611893576101008083540402835291602001916118be565b820191906000526020600020905b8154815290600101906020018083116118a157829003601f168201915b5050505050905060006118cf611e9d565b90506000815114156118e5578192505050611928565b60008251111561191a578082604051602001611902929190612c11565b60405160208183030381529060405292505050611928565b61192384611eb4565b925050505b919050565b600081600001549050919050565b611955828260405180602001604052806000815250611f5b565b5050565b611962826110b8565b6119a1576040517f08c379a000000000000000000000000000000000000000000000000000000000815260040161199890612e4e565b60405180910390fd5b806006600084815260200190815260200160002090805190602001906119c8929190612362565b505050565b6001816000016000828254019250508190555050565b60007f80ac58cd000000000000000000000000000000000000000000000000000000007bffffffffffffffffffffffffffffffffffffffffffffffffffffffff1916827bffffffffffffffffffffffffffffffffffffffffffffffffffffffff19161480611aae57507f5b5e139f000000000000000000000000000000000000000000000000000000007bffffffffffffffffffffffffffffffffffffffffffffffffffffffff1916827bffffffffffffffffffffffffffffffffffffffffffffffffffffffff1916145b80611abe5750611abd82611fb6565b5b9050919050565b505050565b606060006002836002611add91906130da565b611ae79190613053565b67ffffffffffffffff811115611b0057611aff6133eb565b5b6040519080825280601f01601f191660200182016040528015611b325781602001600182028036833780820191505090505b5090507f300000000000000000000000000000000000000000000000000000000000000081600081518110611b6a57611b696133bc565b5b60200101907effffffffffffffffffffffffffffffffffffffffffffffffffffffffffffff1916908160001a9053507f780000000000000000000000000000000000000000000000000000000000000081600181518110611bce57611bcd6133bc565b5b60200101907effffffffffffffffffffffffffffffffffffffffffffffffffffffffffffff1916908160001a90535060006001846002611c0e91906130da565b611c189190613053565b90505b6001811115611cb8577f3031323334353637383961626364656600000000000000000000000000000000600f861660108110611c5a57611c596133bc565b5b1a60f81b828281518110611c7157611c706133bc565b5b60200101907effffffffffffffffffffffffffffffffffffffffffffffffffffffffffffff1916908160001a905350600485901c945080611cb190613228565b9050611c1b565b5060008414611cfc576040517f08c379a0000000000000000000000000000000000000000000000000000000008152600401611cf390612d2e565b60405180910390fd5b8091505092915050565b6000611d278473ffffffffffffffffffffffffffffffffffffffff16612020565b15611e90578373ffffffffffffffffffffffffffffffffffffffff1663150b7a02611d50611124565b8786866040518563ffffffff1660e01b8152600401611d729493929190612c8a565b602060405180830381600087803b158015611d8c57600080fd5b505af1925050508015611dbd57506040513d601f19601f82011682018060405250810190611dba919061281c565b60015b611e40573d8060008114611ded576040519150601f19603f3d011682016040523d82523d6000602084013e611df2565b606091505b50600081511415611e38576040517f08c379a0000000000000000000000000000000000000000000000000000000008152600401611e2f90612d4e565b60405180910390fd5b805181602001fd5b63150b7a0260e01b7bffffffffffffffffffffffffffffffffffffffffffffffffffffffff1916817bffffffffffffffffffffffffffffffffffffffffffffffffffffffff191614915050611e95565b600190505b949350505050565b606060405180602001604052806000815250905090565b6060611ebf826110b8565b611efe576040517f08c379a0000000000000000000000000000000000000000000000000000000008152600401611ef590612eee565b60405180910390fd5b6000611f08611e9d565b90506000815111611f285760405180602001604052806000815250611f53565b80611f3284612033565b604051602001611f43929190612c11565b6040516020818303038152906040525b915050919050565b611f658383612194565b611f726000848484611d06565b611fb1576040517f08c379a0000000000000000000000000000000000000000000000000000000008152600401611fa890612d4e565b60405180910390fd5b505050565b60007f01ffc9a7000000000000000000000000000000000000000000000000000000007bffffffffffffffffffffffffffffffffffffffffffffffffffffffff1916827bffffffffffffffffffffffffffffffffffffffffffffffffffffffff1916149050919050565b600080823b905060008111915050919050565b6060600082141561207b576040518060400160405280600181526020017f3000000000000000000000000000000000000000000000000000000000000000815250905061218f565b600082905060005b600082146120ad578080612096906132b5565b915050600a826120a691906130a9565b9150612083565b60008167ffffffffffffffff8111156120c9576120c86133eb565b5b6040519080825280601f01601f1916602001820160405280156120fb5781602001600182028036833780820191505090505b5090505b60008514612188576001826121149190613134565b9150600a8561212391906132fe565b603061212f9190613053565b60f81b818381518110612145576121446133bc565b5b60200101907effffffffffffffffffffffffffffffffffffffffffffffffffffffffffffff1916908160001a905350600a8561218191906130a9565b94506120ff565b8093505050505b919050565b600073ffffffffffffffffffffffffffffffffffffffff168273ffffffffffffffffffffffffffffffffffffffff161415612204576040517f08c379a00000000000000000000000000000000000000000000000000000000081526004016121fb90612e6e565b60405180910390fd5b61220d816110b8565b1561224d576040517f08c379a000000000000000000000000000000000000000000000000000000000815260040161224490612d6e565b60405180910390fd5b61225960008383611ac5565b6001600360008473ffffffffffffffffffffffffffffffffffffffff1673ffffffffffffffffffffffffffffffffffffffff16815260200190815260200160002060008282546122a99190613053565b92505081905550816002600083815260200190815260200160002060006101000a81548173ffffffffffffffffffffffffffffffffffffffff021916908373ffffffffffffffffffffffffffffffffffffffff160217905550808273ffffffffffffffffffffffffffffffffffffffff16600073ffffffffffffffffffffffffffffffffffffffff167fddf252ad1be2c89b69c2b068fc378daa952ba7f163c4a11628f55a4df523b3ef60405160405180910390a45050565b82805461236e90613252565b90600052602060002090601f01602090048101928261239057600085556123d7565b82601f106123a957805160ff19168380011785556123d7565b828001600101855582156123d7579182015b828111156123d65782518255916020019190600101906123bb565b5b5090506123e491906123e8565b5090565b5b808211156124015760008160009055506001016123e9565b5090565b600061241861241384612fae565b612f89565b9050828152602081018484840111156124345761243361341f565b5b61243f8482856131e6565b509392505050565b600061245a61245584612fdf565b612f89565b9050828152602081018484840111156124765761247561341f565b5b6124818482856131e6565b509392505050565b60008135905061249881613987565b92915050565b6000813590506124ad8161399e565b92915050565b6000813590506124c2816139b5565b92915050565b6000813590506124d7816139cc565b92915050565b6000815190506124ec816139cc565b92915050565b600082601f8301126125075761250661341a565b5b8135612517848260208601612405565b91505092915050565b600082601f8301126125355761253461341a565b5b8135612545848260208601612447565b91505092915050565b60008135905061255d816139e3565b92915050565b60006020828403121561257957612578613429565b5b600061258784828501612489565b91505092915050565b600080604083850312156125a7576125a6613429565b5b60006125b585828601612489565b92505060206125c685828601612489565b9150509250929050565b6000806000606084860312156125e9576125e8613429565b5b60006125f786828701612489565b935050602061260886828701612489565b92505060406126198682870161254e565b9150509250925092565b6000806000806080858703121561263d5761263c613429565b5b600061264b87828801612489565b945050602061265c87828801612489565b935050604061266d8782880161254e565b925050606085013567ffffffffffffffff81111561268e5761268d613424565b5b61269a878288016124f2565b91505092959194509250565b600080604083850312156126bd576126bc613429565b5b60006126cb85828601612489565b92505060206126dc8582860161249e565b9150509250929050565b600080604083850312156126fd576126fc613429565b5b600061270b85828601612489565b925050602083013567ffffffffffffffff81111561272c5761272b613424565b5b61273885828601612520565b9150509250929050565b6000806040838503121561275957612758613429565b5b600061276785828601612489565b92505060206127788582860161254e565b9150509250929050565b60006020828403121561279857612797613429565b5b60006127a6848285016124b3565b91505092915050565b600080604083850312156127c6576127c5613429565b5b60006127d4858286016124b3565b92505060206127e585828601612489565b9150509250929050565b60006020828403121561280557612804613429565b5b6000612813848285016124c8565b91505092915050565b60006020828403121561283257612831613429565b5b6000612840848285016124dd565b91505092915050565b60006020828403121561285f5761285e613429565b5b600061286d8482850161254e565b91505092915050565b61287f81613168565b82525050565b61288e8161317a565b82525050565b61289d81613186565b82525050565b60006128ae82613010565b6128b88185613026565b93506128c88185602086016131f5565b6128d18161342e565b840191505092915050565b60006128e78261301b565b6128f18185613037565b93506129018185602086016131f5565b61290a8161342e565b840191505092915050565b60006129208261301b565b61292a8185613048565b935061293a8185602086016131f5565b80840191505092915050565b6000612953602083613037565b915061295e8261343f565b602082019050919050565b6000612976603283613037565b915061298182613468565b604082019050919050565b6000612999601c83613037565b91506129a4826134b7565b602082019050919050565b60006129bc602483613037565b91506129c7826134e0565b604082019050919050565b60006129df601983613037565b91506129ea8261352f565b602082019050919050565b6000612a02602c83613037565b9150612a0d82613558565b604082019050919050565b6000612a25603883613037565b9150612a30826135a7565b604082019050919050565b6000612a48602a83613037565b9150612a53826135f6565b604082019050919050565b6000612a6b602983613037565b9150612a7682613645565b604082019050919050565b6000612a8e602e83613037565b9150612a9982613694565b604082019050919050565b6000612ab1602083613037565b9150612abc826136e3565b602082019050919050565b6000612ad4603183613037565b9150612adf8261370c565b604082019050919050565b6000612af7602c83613037565b9150612b028261375b565b604082019050919050565b6000612b1a602983613037565b9150612b25826137aa565b604082019050919050565b6000612b3d602f83613037565b9150612b48826137f9565b604082019050919050565b6000612b60602183613037565b9150612b6b82613848565b604082019050919050565b6000612b83603183613037565b9150612b8e82613897565b604082019050919050565b6000612ba6601783613048565b9150612bb1826138e6565b601782019050919050565b6000612bc9601183613048565b9150612bd48261390f565b601182019050919050565b6000612bec602f83613037565b9150612bf782613938565b604082019050919050565b612c0b816131dc565b82525050565b6000612c1d8285612915565b9150612c298284612915565b91508190509392505050565b6000612c4082612b99565b9150612c4c8285612915565b9150612c5782612bbc565b9150612c638284612915565b91508190509392505050565b6000602082019050612c846000830184612876565b92915050565b6000608082019050612c9f6000830187612876565b612cac6020830186612876565b612cb96040830185612c02565b8181036060830152612ccb81846128a3565b905095945050505050565b6000602082019050612ceb6000830184612885565b92915050565b6000602082019050612d066000830184612894565b92915050565b60006020820190508181036000830152612d2681846128dc565b905092915050565b60006020820190508181036000830152612d4781612946565b9050919050565b60006020820190508181036000830152612d6781612969565b9050919050565b60006020820190508181036000830152612d878161298c565b9050919050565b60006020820190508181036000830152612da7816129af565b9050919050565b60006020820190508181036000830152612dc7816129d2565b9050919050565b60006020820190508181036000830152612de7816129f5565b9050919050565b60006020820190508181036000830152612e0781612a18565b9050919050565b60006020820190508181036000830152612e2781612a3b565b9050919050565b60006020820190508181036000830152612e4781612a5e565b9050919050565b60006020820190508181036000830152612e6781612a81565b9050919050565b60006020820190508181036000830152612e8781612aa4565b9050919050565b60006020820190508181036000830152612ea781612ac7565b9050919050565b60006020820190508181036000830152612ec781612aea565b9050919050565b60006020820190508181036000830152612ee781612b0d565b9050919050565b60006020820190508181036000830152612f0781612b30565b9050919050565b60006020820190508181036000830152612f2781612b53565b9050919050565b60006020820190508181036000830152612f4781612b76565b9050919050565b60006020820190508181036000830152612f6781612bdf565b9050919050565b6000602082019050612f836000830184612c02565b92915050565b6000612f93612fa4565b9050612f9f8282613284565b919050565b6000604051905090565b600067ffffffffffffffff821115612fc957612fc86133eb565b5b612fd28261342e565b9050602081019050919050565b600067ffffffffffffffff821115612ffa57612ff96133eb565b5b6130038261342e565b9050602081019050919050565b600081519050919050565b600081519050919050565b600082825260208201905092915050565b600082825260208201905092915050565b600081905092915050565b600061305e826131dc565b9150613069836131dc565b9250827fffffffffffffffffffffffffffffffffffffffffffffffffffffffffffffffff0382111561309e5761309d61332f565b5b828201905092915050565b60006130b4826131dc565b91506130bf836131dc565b9250826130cf576130ce61335e565b5b828204905092915050565b60006130e5826131dc565b91506130f0836131dc565b9250817fffffffffffffffffffffffffffffffffffffffffffffffffffffffffffffffff04831182151516156131295761312861332f565b5b828202905092915050565b600061313f826131dc565b915061314a836131dc565b92508282101561315d5761315c61332f565b5b828203905092915050565b6000613173826131bc565b9050919050565b60008115159050919050565b6000819050919050565b60007fffffffff0000000000000000000000000000000000000000000000000000000082169050919050565b600073ffffffffffffffffffffffffffffffffffffffff82169050919050565b6000819050919050565b82818337600083830152505050565b60005b838110156132135780820151818401526020810190506131f8565b83811115613222576000848401525b50505050565b6000613233826131dc565b915060008214156132475761324661332f565b5b600182039050919050565b6000600282049050600182168061326a57607f821691505b6020821081141561327e5761327d61338d565b5b50919050565b61328d8261342e565b810181811067ffffffffffffffff821117156132ac576132ab6133eb565b5b80604052505050565b60006132c0826131dc565b91507fffffffffffffffffffffffffffffffffffffffffffffffffffffffffffffffff8214156132f3576132f261332f565b5b600182019050919050565b6000613309826131dc565b9150613314836131dc565b9250826133245761332361335e565b5b828206905092915050565b7f4e487b7100000000000000000000000000000000000000000000000000000000600052601160045260246000fd5b7f4e487b7100000000000000000000000000000000000000000000000000000000600052601260045260246000fd5b7f4e487b7100000000000000000000000000000000000000000000000000000000600052602260045260246000fd5b7f4e487b7100000000000000000000000000000000000000000000000000000000600052603260045260246000fd5b7f4e487b7100000000000000000000000000000000000000000000000000000000600052604160045260246000fd5b600080fd5b600080fd5b600080fd5b600080fd5b6000601f19601f8301169050919050565b7f537472696e67733a20686578206c656e67746820696e73756666696369656e74600082015250565b7f4552433732313a207472616e7366657220746f206e6f6e20455243373231526560008201527f63656976657220696d706c656d656e7465720000000000000000000000000000602082015250565b7f4552433732313a20746f6b656e20616c7265616479206d696e74656400000000600082015250565b7f4552433732313a207472616e7366657220746f20746865207a65726f2061646460008201527f7265737300000000000000000000000000000000000000000000000000000000602082015250565b7f4552433732313a20617070726f766520746f2063616c6c657200000000000000600082015250565b7f4552433732313a206f70657261746f7220717565727920666f72206e6f6e657860008201527f697374656e7420746f6b656e0000000000000000000000000000000000000000602082015250565b7f4552433732313a20617070726f76652063616c6c6572206973206e6f74206f7760008201527f6e6572206e6f7220617070726f76656420666f7220616c6c0000000000000000602082015250565b7f4552433732313a2062616c616e636520717565727920666f7220746865207a6560008201527f726f206164647265737300000000000000000000000000000000000000000000602082015250565b7f4552433732313a206f776e657220717565727920666f72206e6f6e657869737460008201527f656e7420746f6b656e0000000000000000000000000000000000000000000000602082015250565b7f45524337323155524953746f726167653a2055524920736574206f66206e6f6e60008201527f6578697374656e7420746f6b656e000000000000000000000000000000000000602082015250565b7f4552433732313a206d696e7420746f20746865207a65726f2061646472657373600082015250565b7f45524337323155524953746f726167653a2055524920717565727920666f722060008201527f6e6f6e6578697374656e7420746f6b656e000000000000000000000000000000602082015250565b7f4552433732313a20617070726f76656420717565727920666f72206e6f6e657860008201527f697374656e7420746f6b656e0000000000000000000000000000000000000000602082015250565b7f4552433732313a207472616e73666572206f6620746f6b656e2074686174206960008201527f73206e6f74206f776e0000000000000000000000000000000000000000000000602082015250565b7f4552433732314d657461646174613a2055524920717565727920666f72206e6f60008201527f6e6578697374656e7420746f6b656e0000000000000000000000000000000000602082015250565b7f4552433732313a20617070726f76616c20746f2063757272656e74206f776e6560008201527f7200000000000000000000000000000000000000000000000000000000000000602082015250565b7f4552433732313a207472616e736665722063616c6c6572206973206e6f74206f60008201527f776e6572206e6f7220617070726f766564000000000000000000000000000000602082015250565b7f416363657373436f6e74726f6c3a206163636f756e7420000000000000000000600082015250565b7f206973206d697373696e6720726f6c6520000000000000000000000000000000600082015250565b7f416363657373436f6e74726f6c3a2063616e206f6e6c792072656e6f756e636560008201527f20726f6c657320666f722073656c660000000000000000000000000000000000602082015250565b61399081613168565b811461399b57600080fd5b50565b6139a78161317a565b81146139b257600080fd5b50565b6139be81613186565b81146139c957600080fd5b50565b6139d581613190565b81146139e057600080fd5b50565b6139ec816131dc565b81146139f757600080fd5b5056fea2646970667358221220929de4b787a7eadecfdbd04dc313698ce8c6b154d42733ccae888b864479599d64736f6c63430008070033",
  "immutableReferences": {},
  "source": "// SPDX-License-Identifier: MIT\r\npragma solidity ^0.8.0;\r\n\r\n//NFT Minting Library\r\nimport \"@openzeppelin/contracts/token/ERC721/ERC721.sol\";\r\n// User privileges control ( Control who can call the functions)\r\nimport \"@openzeppelin/contracts/access/AccessControl.sol\";\r\n// openzeppelin library for enumerating tokenId\r\nimport \"@openzeppelin/contracts/utils/Counters.sol\";\r\n// A Uniform Resource Identifier (URI) is a generic term for the names of all resources connected to the World Wide Web. This is a library to basically store links\r\nimport \"@openzeppelin/contracts/token/ERC721/extensions/ERC721URIStorage.sol\";\r\n\r\ncontract MyToken is ERC721, ERC721URIStorage, AccessControl {\r\n    using Counters for Counters.Counter;\r\n    \r\n    \r\n    // initialization of variables from previous simple wallet contractuint public balanceReceived;\r\n    uint public balanceReceived;\r\n    address payableTo;\r\n    \r\n\r\n    // Default example of creation of a role. Possible to create other roles.\r\n    bytes32 public constant MINTER_ROLE = keccak256(\"MINTER_ROLE\");\r\n    Counters.Counter private _tokenIdCounter;\r\n\r\n    constructor() ERC721(\"MyToken\", \"MTK\") {\r\n        _setupRole(DEFAULT_ADMIN_ROLE, msg.sender);\r\n        _setupRole(MINTER_ROLE, msg.sender);\r\n    }\r\n    \r\n    \r\n    // Start of previous functions from simplewallet \r\n    \r\n    function receiveMoney() public payable {\r\n    balanceReceived +=msg.value; \r\n}\r\n\r\n    function getBalance() public view returns(uint){\r\n        return address(this).balance;\r\n    }\r\n\r\n    function withdrawMoney() public {\r\n        address payable to = payable(msg.sender);\r\n        to.transfer(getBalance());\r\n    }\r\n\r\n    function withdrawMoneyTo(address _payableTo) public {\r\n        payable(_payableTo).transfer(getBalance()); \r\n    }\r\n\r\n    // fall back function required by any smart conrtract for Transactions that has no data. \r\n    receive() external payable {\r\n    }\r\n    \r\n    \r\n    // End of previous functions from simplewallet \r\n\r\n    // DEFAULT SAFE MINT FUNCTION \r\n    // function safeMint(address to) public onlyRole(MINTER_ROLE) {\r\n    //     _safeMint(to, _tokenIdCounter.current());\r\n    //     _tokenIdCounter.increment();\r\n    // }\r\n    \r\n    \r\n    \r\n    // Modified Safemint function to include URI \r\n    //https://docs.openzeppelin.com/contracts/4.x/erc721\r\n    // CRT F contract GameItem is ERC721URIStorage\r\n    // to see an exmaple of URI\r\n    \r\n    // Remember URI is just a web link!  \r\n     function safeMint(address to, string memory _tokenURI) public onlyRole(MINTER_ROLE) {\r\n        _safeMint(to, _tokenIdCounter.current());\r\n        _setTokenURI(_tokenIdCounter.current(), _tokenURI);\r\n        _tokenIdCounter.increment();\r\n    }\r\n\r\n    // burning is the same as destorying your token\r\n    function _burn(uint256 tokenId) internal override(ERC721, ERC721URIStorage) {\r\n        super._burn(tokenId);\r\n    }\r\n\r\n    function tokenURI(uint256 tokenId)\r\n        public\r\n        view\r\n        override(ERC721, ERC721URIStorage)\r\n        returns (string memory)\r\n    {\r\n        return super.tokenURI(tokenId);\r\n    }\r\n\r\n    function supportsInterface(bytes4 interfaceId)\r\n        public\r\n        view\r\n        override(ERC721, AccessControl)\r\n        returns (bool)\r\n    {\r\n        return super.supportsInterface(interfaceId);\r\n    }\r\n}",
  "sourcePath": "D:/wamp64/www/FTDev/Express/IPFS/MintingMS/contracts/MyToken.sol",
  "compiler": {
    "name": "solc",
    "version": "0.8.7+commit.e28d00a7.Emscripten.clang"
  },
  "schemaVersion": "3.3.4",
  "updatedAt": "2021-08-14T09:14:55.306Z",
  "networkType": "ethereum",
  "devdoc": {
    "kind": "dev",
    "methods": {
      "approve(address,uint256)": {
        "details": "See {IERC721-approve}."
      },
      "balanceOf(address)": {
        "details": "See {IERC721-balanceOf}."
      },
      "getApproved(uint256)": {
        "details": "See {IERC721-getApproved}."
      },
      "getRoleAdmin(bytes32)": {
        "details": "Returns the admin role that controls `role`. See {grantRole} and {revokeRole}. To change a role's admin, use {_setRoleAdmin}."
      },
      "grantRole(bytes32,address)": {
        "details": "Grants `role` to `account`. If `account` had not been already granted `role`, emits a {RoleGranted} event. Requirements: - the caller must have ``role``'s admin role."
      },
      "hasRole(bytes32,address)": {
        "details": "Returns `true` if `account` has been granted `role`."
      },
      "isApprovedForAll(address,address)": {
        "details": "See {IERC721-isApprovedForAll}."
      },
      "name()": {
        "details": "See {IERC721Metadata-name}."
      },
      "ownerOf(uint256)": {
        "details": "See {IERC721-ownerOf}."
      },
      "renounceRole(bytes32,address)": {
        "details": "Revokes `role` from the calling account. Roles are often managed via {grantRole} and {revokeRole}: this function's purpose is to provide a mechanism for accounts to lose their privileges if they are compromised (such as when a trusted device is misplaced). If the calling account had been granted `role`, emits a {RoleRevoked} event. Requirements: - the caller must be `account`."
      },
      "revokeRole(bytes32,address)": {
        "details": "Revokes `role` from `account`. If `account` had been granted `role`, emits a {RoleRevoked} event. Requirements: - the caller must have ``role``'s admin role."
      },
      "safeTransferFrom(address,address,uint256)": {
        "details": "See {IERC721-safeTransferFrom}."
      },
      "safeTransferFrom(address,address,uint256,bytes)": {
        "details": "See {IERC721-safeTransferFrom}."
      },
      "setApprovalForAll(address,bool)": {
        "details": "See {IERC721-setApprovalForAll}."
      },
      "symbol()": {
        "details": "See {IERC721Metadata-symbol}."
      },
      "transferFrom(address,address,uint256)": {
        "details": "See {IERC721-transferFrom}."
      }
    },
    "version": 1
  },
  "userdoc": {
    "kind": "user",
    "methods": {},
    "version": 1
  }
}