{
  "contractName": "wallet",
  "abi": [
    {
      "anonymous": false,
      "inputs": [
        {
          "indexed": true,
          "internalType": "address",
          "name": "from",
          "type": "address"
        },
        {
          "indexed": false,
          "internalType": "uint256",
          "name": "value",
          "type": "uint256"
        }
      ],
      "name": "ReceiveMoney",
      "type": "event"
    },
    {
      "anonymous": false,
      "inputs": [
        {
          "indexed": true,
          "internalType": "address",
          "name": "from",
          "type": "address"
        },
        {
          "indexed": true,
          "internalType": "address",
          "name": "to",
          "type": "address"
        },
        {
          "indexed": false,
          "internalType": "uint256",
          "name": "value",
          "type": "uint256"
        }
      ],
      "name": "WithdrawMoneyTo",
      "type": "event"
    },
    {
      "inputs": [],
      "name": "balanceReceived",
      "outputs": [
        {
          "internalType": "uint256",
          "name": "",
          "type": "uint256"
        }
      ],
      "stateMutability": "view",
      "type": "function",
      "constant": true
    },
    {
      "stateMutability": "payable",
      "type": "receive",
      "payable": true
    },
    {
      "inputs": [],
      "name": "receiveMoney",
      "outputs": [],
      "stateMutability": "payable",
      "type": "function",
      "payable": true
    },
    {
      "inputs": [],
      "name": "getBalance",
      "outputs": [
        {
          "internalType": "uint256",
          "name": "",
          "type": "uint256"
        }
      ],
      "stateMutability": "view",
      "type": "function",
      "constant": true
    },
    {
      "inputs": [],
      "name": "withdrawMoney",
      "outputs": [],
      "stateMutability": "nonpayable",
      "type": "function"
    },
    {
      "inputs": [
        {
          "internalType": "address",
          "name": "_payableTo",
          "type": "address"
        }
      ],
      "name": "withdrawMoneyTo",
      "outputs": [],
      "stateMutability": "nonpayable",
      "type": "function"
    }
  ],
  "bytecode": "0x608060405234801561001057600080fd5b50610471806100206000396000f3fe60806040526004361061004e5760003560e01c80630ff8d8a51461005a57806312065fe01461008357806352a90c42146100ae5780636d26ec18146100d9578063ac446002146100e357610055565b3661005557005b600080fd5b34801561006657600080fd5b50610081600480360381019061007c9190610321565b6100fa565b005b34801561008f57600080fd5b506100986101ce565b6040516100a59190610367565b60405180910390f35b3480156100ba57600080fd5b506100c36101d6565b6040516100d09190610367565b60405180910390f35b6100e16101dc565b005b3480156100ef57600080fd5b506100f8610243565b005b60006101046101ce565b90508173ffffffffffffffffffffffffffffffffffffffff166108fc829081150290604051600060405180830381858888f1935050505015801561014c573d6000803e3d6000fd5b508173ffffffffffffffffffffffffffffffffffffffff163373ffffffffffffffffffffffffffffffffffffffff167f6dd42f7c0fb54558470e55575d1c634aef909a8e21ac3cc0f6fb22af9e1f84ca836040516101aa9190610367565b60405180910390a3806000808282546101c391906103b1565b925050819055505050565b600047905090565b60005481565b346000808282546101ed91906103e5565b925050819055503373ffffffffffffffffffffffffffffffffffffffff167e715e891e9b8b6b8b44d57414ed529c4280b7d39979323ccc9d475415042633346040516102399190610367565b60405180910390a2565b600033905060006102526101ce565b90508173ffffffffffffffffffffffffffffffffffffffff166108fc6102766101ce565b9081150290604051600060405180830381858888f193505050501580156102a1573d6000803e3d6000fd5b50806000808282546102b391906103b1565b925050819055505050565b600080fd5b600073ffffffffffffffffffffffffffffffffffffffff82169050919050565b60006102ee826102c3565b9050919050565b6102fe816102e3565b811461030957600080fd5b50565b60008135905061031b816102f5565b92915050565b600060208284031215610337576103366102be565b5b60006103458482850161030c565b91505092915050565b6000819050919050565b6103618161034e565b82525050565b600060208201905061037c6000830184610358565b92915050565b7f4e487b7100000000000000000000000000000000000000000000000000000000600052601160045260246000fd5b60006103bc8261034e565b91506103c78361034e565b9250828210156103da576103d9610382565b5b828203905092915050565b60006103f08261034e565b91506103fb8361034e565b9250827fffffffffffffffffffffffffffffffffffffffffffffffffffffffffffffffff038211156104305761042f610382565b5b82820190509291505056fea264697066735822122050ed044230cfbdb945e7aff322962f4ace0b027651d1ead926c09178141949fa64736f6c63430008090033",
  "immutableReferences": {},
  "source": "// SPDX-License-Identifier: MIT\r\npragma solidity ^0.8.0;\r\n\r\ncontract wallet {\r\n    //Variables\r\n    uint public balanceReceived;\r\n    address payableTo;\r\n    \r\n    \r\n    // simple event emitter \r\n    event ReceiveMoney(address indexed from, uint256 value);\r\n    \r\n    // Another example \r\n    //event emitter inputs are set to true if the field is part of the logs topics, false if it one of the logs data segment.\r\n    event WithdrawMoneyTo(address indexed from, address indexed to, uint256 value);\r\n    \r\n    // event FailedwithdrawMonetyTo(address indexed from, address indexed to, uint256 value);\r\n    // \r\n    function receiveMoney() public payable {\r\n        balanceReceived +=msg.value; \r\n        emit ReceiveMoney(msg.sender, msg.value);\r\n    }\r\n    // calling a fucntion without event emitter the logs will be empty. Check the console below after calling this function.\r\n    function getBalance() public view returns(uint){\r\n        return address(this).balance;\r\n    }\r\n\r\n    function withdrawMoney() public {\r\n        address payable to = payable(msg.sender);\r\n        uint256 value=getBalance();\r\n        to.transfer(getBalance());\r\n        balanceReceived -=value; \r\n    }\r\n    \r\n    function withdrawMoneyTo(address _payableTo) public {\r\n        uint256 value=getBalance();\r\n        payable(_payableTo).transfer(value);\r\n        // The withdrawMoney event emitter is emitted, it stores the arguments passed in transaction logs. See logs in remix console after calling this function. \r\n        // These logs are stored on blockchain and are accessible using address of the contract till the contract is present on the blockchain.\r\n        emit WithdrawMoneyTo(msg.sender,_payableTo, value);\r\n        // emit FailedwithdrawMonetyTowithdrawMoneyTo(msg.sender,_payableTo, value);\r\n        balanceReceived -=value; \r\n    \r\n}\r\n// fall back function required \r\n//by any smart contract for Transactions that has no data. \r\nreceive() external payable {\r\n}\r\n}",
  "sourcePath": "D:/wamp64/www/Workshop/rootfolder/contracts/wallet.sol",
  "compiler": {
    "name": "solc",
    "version": "0.8.9+commit.e5eed63a.Emscripten.clang"
  },
  "schemaVersion": "3.3.4",
  "updatedAt": "2021-10-08T19:35:15.893Z",
  "networkType": "ethereum",
  "devdoc": {
    "kind": "dev",
    "methods": {},
    "version": 1
  },
  "userdoc": {
    "kind": "user",
    "methods": {},
    "version": 1
  }
}